:1000000026C040C03FC03EC03DC03AC23BC03AC01F
:1000100039C038C037C036C035C034C033C0000026
:10002000000037000000000038000000000036002B
:10003000020202020202020202020102040810206D
:100040002004100801020000040000000000112438
:100050001FBECFE5D2E0DEBFCDBF11E0A0E6B0E02D
:10006000E4EEF7E002C005900D92AA3DB107D9F782
:1000700021E0AAEDB1E001C01D92A53EB207E1F773
:1000800049D2AEC3BDCF823081F018F4813051F037
:100090000895833019F0843009F008958CB58F7D70
:1000A0008CBD08958AB58F7702C08AB58F7D8ABDD1
:1000B0000895CF93DF93E8E4F0E08491EEE3F0E07D
:1000C000D491E4E3F0E0C491CC2389F08111DBDF2B
:1000D000EC2FF0E0EE0FFF1FE65DFF4FA591B4910E
:1000E000EC91ED2381E090E021F480E002C080E01B
:1000F00090E0DF91CF9108951F93CF93DF93282F46
:1001000030E0F901EC5BFF4F8491F901E65CFF4FB1
:10011000D491F901E05DFF4FC491CC23C1F0162FBB
:100120008111B1DFEC2FF0E0EE0FFF1FEC5DFF4F10
:10013000A591B4918FB7F894111105C09C91ED2F42
:10014000E095E92302C0EC91ED2BEC938FBFDF919A
:10015000CF911F910895CF93DF9390E0FC01E65C6F
:10016000FF4F2491FC01E05DFF4F8491882361F1F2
:1001700090E0880F991FFC01E25EFF4FC591D4917A
:10018000FC01EC5DFF4FA591B491611109C09FB7CF
:10019000F8948881209582238883EC912E230BC0CC
:1001A000623061F49FB7F8943881822F8095832361
:1001B0008883EC912E2B2C939FBF06C08FB7F894A9
:1001C000E8812E2B28838FBFDF91CF9108953FB711
:1001D000F8948091DF019091E001A091E101B0914C
:1001E000E20122B708B601FE05C02F3F19F00196C3
:1001F000A11DB11D3FBFBA2FA92F982F8827820FAD
:10020000911DA11DB11DBC01CD0143E0660F771FFB
:10021000881F991F4A95D1F7089561E081E06CDF4E
:1002200060E081E069CFCF93C82F682F617082E0D2
:1002300063DFF3DF6C2F627082E05EDFEEDF6C2F36
:10024000647082E059DFE9DF6C2F687082E054DF70
:10025000E4DF6C2F607182E04FDFDFDF6C2F6072B4
:1002600082E04ADFDADF6C2F607482E045DFD5DFA1
:100270006C2F607882E040DFCF91CFCFCF93C82F33
:10028000682F607882E038DFC8DF6C2F607482E00E
:1002900033DFC3DF6C2F607282E02EDFBEDF6C2F96
:1002A000607182E029DFB9DF6C2F687082E024DFA3
:1002B000B4DF6C2F647082E01FDFAFDF6C2F6270E1
:1002C00082E01ADFAADF6C2F617082E015DFCF9128
:1002D000A4CF60E080E010DF61E080E00DCF8F927E
:1002E0009F92AF92BF92CF92DF92EF92FF920F93C5
:1002F0001F93CF93DF936C0195E0E92EF12C46011B
:1003000088E0880E911C2CE9A22E2FE0B22E8601E7
:10031000C1E0D0E0CE01B2DFF80181918F01082E5B
:10032000000C990B80DFCC0FDD1FC5010197F1F7A1
:10033000D0DFBFDE019739F00815190559F7F1E054
:10034000EF1AF10821F7DF91CF911F910F91FF90E4
:10035000EF90DF90CF90BF90AF909F908F900895D7
:10036000AF92BF92CF92DF92EF92FF920F931F93C3
:10037000CF93DF93082E000C990B67E070E01FD23B
:100380006C0192E3E92EF12C2CE9A22E2FE0B22E83
:10039000C0E0D0E001E010E0C80170DFFE01EC0D2C
:1003A000FD1DE15BF0402081822F220F990B80958B
:1003B000909539DF000F111FC5010197F1F789DF13
:1003C00078DE019741F02196C730D10529F781E009
:1003D000E81AF108E9F6DF91CF911F910F91FF9094
:1003E000EF90DF90CF90BF90AF9008956F927F9283
:1003F0008F929F92AF92BF92CF92DF92EF92FF9235
:100400000F931F93CF93DF936C015B01E12CF12CD1
:100410003C0188E0680E711C9CE9892E9FE0992EB2
:10042000EA14FB04F4F48601C1E0D0E0CE0126DF3B
:10043000F80181918F01082E000C990B8095909501
:10044000F2DECC0FDD1FC4010197F1F742DF31DE90
:10045000019739F00615170549F7FFEFEF1AFF0A64
:10046000DFCFDF91CF911F910F91FF90EF90DF9041
:10047000CF90BF90AF909F908F907F906F90089596
:100480001F920F920FB60F9211242F933F938F93C9
:100490009F93AF93BF938091DB019091DC01A0917A
:1004A000DD01B091DE013091DA0126E0230F2D3716
:1004B00020F40296A11DB11D05C029E8230F039663
:1004C000A11DB11D2093DA018093DB019093DC0123
:1004D000A093DD01B093DE018091DF019091E001F6
:1004E000A091E101B091E2010196A11DB11D80939F
:1004F000DF019093E001A093E101B093E201BF918D
:10050000AF919F918F913F912F910F900FBE0F90C0
:100510001F901895CF93DF9300D000D0CDB7DEB7F2
:1005200078948AB582608ABD8AB581608ABD83B7B6
:10053000826083BF83B7816083BF89B7826089BFD0
:1005400080B7826080BF80B7816080BF329A319A65
:100550003098379A8CB580648CBD61E081E0FBDD1A
:1005600061E082E0F8DD61E080E0F5DD60E084E0FC
:10057000F2DD61E080E0C0DD47E0242E312C5CE953
:10058000C52E5FE0D52E95DD019779F5A2DE1FDE41
:100590002B013C013CE2832E99249394A12CB12C95
:1005A00016DEDC01CB0184199509A609B709883E3E
:1005B0009340A105B10558F021E0821A9108A108E5
:1005C000B10838EE430E33E0531E611C711C8114D8
:1005D0009104A104B10421F78091E3019091E40119
:1005E00001969093E4018093E3018091E30190915F
:1005F000E401069724F01092E4011092E301809147
:10060000E3019091E4018230910509F494C0A4F4CF
:100610000097E9F0019709F0CBC081E4A1DE8CE4FA
:100620009FDE81E49DDE8DE49BDE89E499DE8EE42D
:1006300097DE8FE295DEBCC08430910509F49CC042
:100640000CF47FC0059709F0B3C010E3ACC00CEC0C
:1006500011E01C821B82F8018081082E000C990B8E
:1006600067E070E0ACD04C018181082E000C990B42
:1006700067E070E0A4D05C012AE0422E512C910189
:100680008B819C81281B390B3A832983E12CF12C27
:1006900066246394712CC301F1DDF701EA0DFB1DA3
:1006A000E15BF0402081022E000C330B098002C078
:1006B000220F331F0A94E2F7F701E80DF91DE15B01
:1006C000F0408081082E000C990B0B8002C095959C
:1006D00087950A94E2F7822B932B80959095A3DD62
:1006E000660C771CC6010197F1F7F3DDE2DC019798
:1006F00061F09FEFE91AF90AE7E0EE16F10459F606
:10070000F1E04F1A510809F0C1CFD3DC019709F489
:100710004FC02B813C812F5F3F4F3C832B83273081
:10072000310509F098CF0F5F1F4F31E0083D1307E7
:1007300009F08FCF3DC064E670E080E990E056DEBE
:1007400037C000E610E065E070E0C8014FDE085FEA
:100750001F4F40E000391407B1F700E010E065E0FA
:1007600070E0C80188579F4F41DE08501109003DD5
:100770008FEF1807A1F71CC000E610E0C801AFDD3D
:10078000085F1F4F90E000391907C1F700E010E043
:10079000C80188579F4FA3DD08501109003DEFEFB6
:1007A0001E07B1F705C0812FDBDD1F5F1A33D9F7B4
:1007B00080E090E0892B09F4E6CE22DCE4CE002430
:1007C000552704C0080E591F880F991F009729F05C
:1007D00076956795B8F37105B9F7802D952F089533
:0407E000F894FFCFBB
:1007E40066FFDBC3C3663C1866FFDBC3663C1800C8
:1007F40000667E663C18000000667E7E3C180000A1
:100804000000243C18000000000000180000000054
:100814000066660081C37E18000000000000003EF0
:1008240063737B6F673E0C0E0C0C0C0C3F1E333055
:100834001C06333F1E33301C30331E383C36337FA6
:1008440030783F031F3030331E1C06031F33331E22
:100854003F3330180C0C0C1E33331E33331E1E333F
:10086400333E30180E000C0C00000C0C000C0C0075
:10087400000C0C180C0603060C1800003F00003F87
:1008840000060C1830180C061E3330180C000C3EF1
:10089400637B7B7B031E0C1E33333F33333F66661F
:1008A4003E66663F3C26030303263C1F36666666A7
:1008B400361F7F46161E16467F7F46161E16060FE7
:1008C4003C66030373667C3333333F3333331E0C8C
:1008D4000C0C0C0C1E7830303033331E6766361E19
:1008E4003666670F06060606263F63777F7F6B63CF
:1008F4006363676F7B7363631C36636363361C3F98
:1009040066663E06060F1E3333333B1E383F66666B
:100914003E3666671E33070E38331E3F2D0C0C0C13
:100924000C1E3333333333333F33333333331E0CFF
:100934006363636B7F77636363361C1C3663333393
:10094400331E0C0C1E7F6331184C667F2F48454CB8
:0A0954004C4F2F574F524C442F0018
:00000001FF
